{
  "_format": "hh-sol-artifact-1",
  "contractName": "Pooling",
  "sourceName": "contracts/Pooling.sol",
  "abi": [
    {
      "inputs": [
        {
          "internalType": "address[]",
          "name": "_participants",
          "type": "address[]"
        },
        {
          "internalType": "uint256[]",
          "name": "_shares",
          "type": "uint256[]"
        }
      ],
      "stateMutability": "nonpayable",
      "type": "constructor"
    },
    {
      "anonymous": false,
      "inputs": [
        {
          "indexed": true,
          "internalType": "address",
          "name": "previousOwner",
          "type": "address"
        },
        {
          "indexed": true,
          "internalType": "address",
          "name": "newOwner",
          "type": "address"
        }
      ],
      "name": "OwnershipTransferred",
      "type": "event"
    },
    {
      "anonymous": false,
      "inputs": [
        {
          "indexed": false,
          "internalType": "address",
          "name": "token",
          "type": "address"
        },
        {
          "indexed": false,
          "internalType": "uint256",
          "name": "amount",
          "type": "uint256"
        },
        {
          "indexed": false,
          "internalType": "address",
          "name": "beneficiary",
          "type": "address"
        }
      ],
      "name": "TokensWithdrawn",
      "type": "event"
    },
    {
      "inputs": [
        {
          "internalType": "contract IERC20",
          "name": "token",
          "type": "address"
        },
        {
          "internalType": "address",
          "name": "_participant",
          "type": "address"
        }
      ],
      "name": "alreadyWithdrawn",
      "outputs": [
        {
          "internalType": "uint256",
          "name": "",
          "type": "uint256"
        }
      ],
      "stateMutability": "view",
      "type": "function"
    },
    {
      "inputs": [
        {
          "internalType": "contract IERC20",
          "name": "token",
          "type": "address"
        },
        {
          "internalType": "address",
          "name": "_participant",
          "type": "address"
        }
      ],
      "name": "claimable",
      "outputs": [
        {
          "internalType": "uint256",
          "name": "",
          "type": "uint256"
        }
      ],
      "stateMutability": "view",
      "type": "function"
    },
    {
      "inputs": [],
      "name": "owner",
      "outputs": [
        {
          "internalType": "address",
          "name": "",
          "type": "address"
        }
      ],
      "stateMutability": "view",
      "type": "function"
    },
    {
      "inputs": [
        {
          "internalType": "address",
          "name": "",
          "type": "address"
        }
      ],
      "name": "participant",
      "outputs": [
        {
          "internalType": "uint256",
          "name": "share",
          "type": "uint256"
        }
      ],
      "stateMutability": "view",
      "type": "function"
    },
    {
      "inputs": [],
      "name": "renounceOwnership",
      "outputs": [],
      "stateMutability": "nonpayable",
      "type": "function"
    },
    {
      "inputs": [
        {
          "internalType": "contract IERC20",
          "name": "token",
          "type": "address"
        }
      ],
      "name": "totalTokensDeposited",
      "outputs": [
        {
          "internalType": "uint256",
          "name": "",
          "type": "uint256"
        }
      ],
      "stateMutability": "view",
      "type": "function"
    },
    {
      "inputs": [
        {
          "internalType": "address",
          "name": "newOwner",
          "type": "address"
        }
      ],
      "name": "transferOwnership",
      "outputs": [],
      "stateMutability": "nonpayable",
      "type": "function"
    },
    {
      "inputs": [
        {
          "internalType": "contract IERC20",
          "name": "token",
          "type": "address"
        }
      ],
      "name": "withdraw",
      "outputs": [],
      "stateMutability": "nonpayable",
      "type": "function"
    }
  ],
  "bytecode": "0x60806040523480156200001157600080fd5b506040516200267338038062002673833981810160405281019062000037919062000647565b600062000049620003bc60201b60201c565b9050806000806101000a81548173ffffffffffffffffffffffffffffffffffffffff021916908373ffffffffffffffffffffffffffffffffffffffff1602179055508073ffffffffffffffffffffffffffffffffffffffff16600073ffffffffffffffffffffffffffffffffffffffff167f8be0079c531659141344cd1fd0a4f28419497f9722a3daafe3b4186f6b6457e060405160405180910390a35080518251146200012e576040517f08c379a0000000000000000000000000000000000000000000000000000000008152600401620001259062000778565b60405180910390fd5b6000806000905060008092505b83518360ff16101562000211576000848460ff168151811062000187577f4e487b7100000000000000000000000000000000000000000000000000000000600052603260045260246000fd5b602002602001015114156200019b57600190505b620001f9848460ff1681518110620001dc577f4e487b7100000000000000000000000000000000000000000000000000000000600052603260045260246000fd5b602002602001015183620003c460201b62000a521790919060201c565b91508280620002089062000954565b9350506200013b565b801562000255576040517f08c379a00000000000000000000000000000000000000000000000000000000081526004016200024c90620007bc565b60405180910390fd5b606482146200029b576040517f08c379a000000000000000000000000000000000000000000000000000000000815260040162000292906200079a565b60405180910390fd5b8460019080519060200190620002b392919062000427565b50600092505b83518360ff161015620003b157600060026000878660ff168151811062000309577f4e487b7100000000000000000000000000000000000000000000000000000000600052603260045260246000fd5b602002602001015173ffffffffffffffffffffffffffffffffffffffff1673ffffffffffffffffffffffffffffffffffffffff1681526020019081526020016000209050848460ff16815181106200038a577f4e487b7100000000000000000000000000000000000000000000000000000000600052603260045260246000fd5b60200260200101518160000181905550508280620003a89062000954565b935050620002b9565b505050505062000b16565b600033905090565b6000808284620003d5919062000876565b9050838110156200041d576040517f08c379a0000000000000000000000000000000000000000000000000000000008152600401620004149062000756565b60405180910390fd5b8091505092915050565b828054828255906000526020600020908101928215620004a3579160200282015b82811115620004a25782518260006101000a81548173ffffffffffffffffffffffffffffffffffffffff021916908373ffffffffffffffffffffffffffffffffffffffff1602179055509160200191906001019062000448565b5b509050620004b29190620004b6565b5090565b5b80821115620004d1576000816000905550600101620004b7565b5090565b6000620004ec620004e68462000807565b620007de565b905080838252602082019050828560208602820111156200050c57600080fd5b60005b85811015620005405781620005258882620005bf565b8452602084019350602083019250506001810190506200050f565b5050509392505050565b6000620005616200055b8462000836565b620007de565b905080838252602082019050828560208602820111156200058157600080fd5b60005b85811015620005b557816200059a888262000630565b84526020840193506020830192505060018101905062000584565b5050509392505050565b600081519050620005d08162000ae2565b92915050565b600082601f830112620005e857600080fd5b8151620005fa848260208601620004d5565b91505092915050565b600082601f8301126200061557600080fd5b8151620006278482602086016200054a565b91505092915050565b600081519050620006418162000afc565b92915050565b600080604083850312156200065b57600080fd5b600083015167ffffffffffffffff8111156200067657600080fd5b6200068485828601620005d6565b925050602083015167ffffffffffffffff811115620006a257600080fd5b620006b08582860162000603565b9150509250929050565b6000620006c9601b8362000865565b9150620006d682620009f2565b602082019050919050565b6000620006f060378362000865565b9150620006fd8262000a1b565b604082019050919050565b60006200071760248362000865565b9150620007248262000a6a565b604082019050919050565b60006200073e601f8362000865565b91506200074b8262000ab9565b602082019050919050565b600060208201905081810360008301526200077181620006ba565b9050919050565b600060208201905081810360008301526200079381620006e1565b9050919050565b60006020820190508181036000830152620007b58162000708565b9050919050565b60006020820190508181036000830152620007d7816200072f565b9050919050565b6000620007ea620007fd565b9050620007f882826200091e565b919050565b6000604051905090565b600067ffffffffffffffff821115620008255762000824620009b2565b5b602082029050602081019050919050565b600067ffffffffffffffff821115620008545762000853620009b2565b5b602082029050602081019050919050565b600082825260208201905092915050565b6000620008838262000907565b9150620008908362000907565b9250827fffffffffffffffffffffffffffffffffffffffffffffffffffffffffffffffff03821115620008c857620008c762000983565b5b828201905092915050565b6000620008e082620008e7565b9050919050565b600073ffffffffffffffffffffffffffffffffffffffff82169050919050565b6000819050919050565b600060ff82169050919050565b6200092982620009e1565b810181811067ffffffffffffffff821117156200094b576200094a620009b2565b5b80604052505050565b6000620009618262000911565b915060ff82141562000978576200097762000983565b5b600182019050919050565b7f4e487b7100000000000000000000000000000000000000000000000000000000600052601160045260246000fd5b7f4e487b7100000000000000000000000000000000000000000000000000000000600052604160045260246000fd5b6000601f19601f8301169050919050565b7f536166654d6174683a206164646974696f6e206f766572666c6f770000000000600082015250565b7f506f6f6c696e673a206e756d626572206f66207061727469636970616e74732060008201527f616e642073686172657320646f206e6f74206d61746368000000000000000000602082015250565b7f506f6f6c696e673a2073686172657320646f206e6f742061646420757020746f60008201527f2031303000000000000000000000000000000000000000000000000000000000602082015250565b7f506f6f6c696e673a206f6e65206f662074686520736861726573206973203000600082015250565b62000aed81620008d3565b811462000af957600080fd5b50565b62000b078162000907565b811462000b1357600080fd5b50565b611b4d8062000b266000396000f3fe608060405234801561001057600080fd5b50600436106100885760003560e01c80638da5cb5b1161005b5780638da5cb5b14610113578063d4570c1c14610131578063eabc351214610161578063f2fde38b1461019157610088565b80632605b3c71461008d57806351cff8d9146100bd5780636497ef89146100d9578063715018a614610109575b600080fd5b6100a760048036038101906100a29190611102565b6101ad565b6040516100b491906115bc565b60405180910390f35b6100d760048036038101906100d29190611154565b6101cb565b005b6100f360048036038101906100ee919061117d565b6103e9565b60405161010091906115bc565b60405180910390f35b6101116104fe565b005b61011b610651565b60405161012891906113df565b60405180910390f35b61014b6004803603810190610146919061117d565b61067a565b60405161015891906115bc565b60405180910390f35b61017b60048036038101906101769190611154565b6107e4565b60405161018891906115bc565b60405180910390f35b6101ab60048036038101906101a69190611102565b6109b1565b005b60026020528060005260406000206000915090508060000154905081565b6000600260003373ffffffffffffffffffffffffffffffffffffffff1673ffffffffffffffffffffffffffffffffffffffff168152602001908152602001600020600001541415610251576040517f08c379a00000000000000000000000000000000000000000000000000000000081526004016102489061157c565b60405180910390fd5b600061025d823361067a565b9050600081116102a2576040517f08c379a0000000000000000000000000000000000000000000000000000000008152600401610299906114bc565b60405180910390fd5b6000600260003373ffffffffffffffffffffffffffffffffffffffff1673ffffffffffffffffffffffffffffffffffffffff1681526020019081526020016000209050610339828260010160008673ffffffffffffffffffffffffffffffffffffffff1673ffffffffffffffffffffffffffffffffffffffff16815260200190815260200160002054610a5290919063ffffffff16565b8160010160008573ffffffffffffffffffffffffffffffffffffffff1673ffffffffffffffffffffffffffffffffffffffff168152602001908152602001600020819055506103a933838573ffffffffffffffffffffffffffffffffffffffff16610ab09092919063ffffffff16565b7f892212fefec48d5ab9985161b9e69f149494b9970bd1981c3dbf712d63f0d59c8383336040516103dc93929190611423565b60405180910390a1505050565b600080600260008473ffffffffffffffffffffffffffffffffffffffff1673ffffffffffffffffffffffffffffffffffffffff168152602001908152602001600020600001541415610470576040517f08c379a00000000000000000000000000000000000000000000000000000000081526004016104679061153c565b60405180910390fd5b6000600260008473ffffffffffffffffffffffffffffffffffffffff1673ffffffffffffffffffffffffffffffffffffffff16815260200190815260200160002090508060010160008573ffffffffffffffffffffffffffffffffffffffff1673ffffffffffffffffffffffffffffffffffffffff1681526020019081526020016000205491505092915050565b610506610b36565b73ffffffffffffffffffffffffffffffffffffffff1660008054906101000a900473ffffffffffffffffffffffffffffffffffffffff1673ffffffffffffffffffffffffffffffffffffffff1614610593576040517f08c379a000000000000000000000000000000000000000000000000000000000815260040161058a9061151c565b60405180910390fd5b600073ffffffffffffffffffffffffffffffffffffffff1660008054906101000a900473ffffffffffffffffffffffffffffffffffffffff1673ffffffffffffffffffffffffffffffffffffffff167f8be0079c531659141344cd1fd0a4f28419497f9722a3daafe3b4186f6b6457e060405160405180910390a360008060006101000a81548173ffffffffffffffffffffffffffffffffffffffff021916908373ffffffffffffffffffffffffffffffffffffffff160217905550565b60008060009054906101000a900473ffffffffffffffffffffffffffffffffffffffff16905090565b600080600260008473ffffffffffffffffffffffffffffffffffffffff1673ffffffffffffffffffffffffffffffffffffffff168152602001908152602001600020600001541415610701576040517f08c379a00000000000000000000000000000000000000000000000000000000081526004016106f89061153c565b60405180910390fd5b600061070c846107e4565b90506000600260008573ffffffffffffffffffffffffffffffffffffffff1673ffffffffffffffffffffffffffffffffffffffff1681526020019081526020016000209050600061077d606461076f846000015486610b3e90919063ffffffff16565b610bb990919063ffffffff16565b905060006107d58360010160008973ffffffffffffffffffffffffffffffffffffffff1673ffffffffffffffffffffffffffffffffffffffff1681526020019081526020016000205483610c0390919063ffffffff16565b90508094505050505092915050565b6000808273ffffffffffffffffffffffffffffffffffffffff166370a08231306040518263ffffffff1660e01b815260040161082091906113df565b60206040518083038186803b15801561083857600080fd5b505afa15801561084c573d6000803e3d6000fd5b505050506040513d601f19601f8201168201806040525081019061087091906111b9565b90506000805b60018054905081101561098e5761097960026000600184815481106108c4577f4e487b7100000000000000000000000000000000000000000000000000000000600052603260045260246000fd5b9060005260206000200160009054906101000a900473ffffffffffffffffffffffffffffffffffffffff1673ffffffffffffffffffffffffffffffffffffffff1673ffffffffffffffffffffffffffffffffffffffff16815260200190815260200160002060010160008773ffffffffffffffffffffffffffffffffffffffff1673ffffffffffffffffffffffffffffffffffffffff1681526020019081526020016000205483610a5290919063ffffffff16565b91508080610986906117ab565b915050610876565b60006109a38385610a5290919063ffffffff16565b905080945050505050919050565b6109b9610b36565b73ffffffffffffffffffffffffffffffffffffffff1660008054906101000a900473ffffffffffffffffffffffffffffffffffffffff1673ffffffffffffffffffffffffffffffffffffffff1614610a46576040517f08c379a0000000000000000000000000000000000000000000000000000000008152600401610a3d9061151c565b60405180910390fd5b610a4f81610c4d565b50565b6000808284610a619190611609565b905083811015610aa6576040517f08c379a0000000000000000000000000000000000000000000000000000000008152600401610a9d9061149c565b60405180910390fd5b8091505092915050565b610b318363a9059cbb60e01b8484604051602401610acf9291906113fa565b604051602081830303815290604052907bffffffffffffffffffffffffffffffffffffffffffffffffffffffff19166020820180517bffffffffffffffffffffffffffffffffffffffffffffffffffffffff8381831617835250505050610d7a565b505050565b600033905090565b600080831415610b515760009050610bb3565b60008284610b5f9190611690565b9050828482610b6e919061165f565b14610bae576040517f08c379a0000000000000000000000000000000000000000000000000000000008152600401610ba5906114fc565b60405180910390fd5b809150505b92915050565b6000610bfb83836040518060400160405280601a81526020017f536166654d6174683a206469766973696f6e206279207a65726f000000000000815250610e41565b905092915050565b6000610c4583836040518060400160405280601e81526020017f536166654d6174683a207375627472616374696f6e206f766572666c6f770000815250610ea4565b905092915050565b600073ffffffffffffffffffffffffffffffffffffffff168173ffffffffffffffffffffffffffffffffffffffff161415610cbd576040517f08c379a0000000000000000000000000000000000000000000000000000000008152600401610cb49061147c565b60405180910390fd5b8073ffffffffffffffffffffffffffffffffffffffff1660008054906101000a900473ffffffffffffffffffffffffffffffffffffffff1673ffffffffffffffffffffffffffffffffffffffff167f8be0079c531659141344cd1fd0a4f28419497f9722a3daafe3b4186f6b6457e060405160405180910390a3806000806101000a81548173ffffffffffffffffffffffffffffffffffffffff021916908373ffffffffffffffffffffffffffffffffffffffff16021790555050565b6000610ddc826040518060400160405280602081526020017f5361666545524332303a206c6f772d6c6576656c2063616c6c206661696c65648152508573ffffffffffffffffffffffffffffffffffffffff16610f089092919063ffffffff16565b9050600081511115610e3c5780806020019051810190610dfc919061112b565b610e3b576040517f08c379a0000000000000000000000000000000000000000000000000000000008152600401610e329061159c565b60405180910390fd5b5b505050565b60008083118290610e88576040517f08c379a0000000000000000000000000000000000000000000000000000000008152600401610e7f919061145a565b60405180910390fd5b5060008385610e97919061165f565b9050809150509392505050565b6000838311158290610eec576040517f08c379a0000000000000000000000000000000000000000000000000000000008152600401610ee3919061145a565b60405180910390fd5b5060008385610efb91906116ea565b9050809150509392505050565b6060610f178484600085610f20565b90509392505050565b606082471015610f65576040517f08c379a0000000000000000000000000000000000000000000000000000000008152600401610f5c906114dc565b60405180910390fd5b610f6e85611034565b610fad576040517f08c379a0000000000000000000000000000000000000000000000000000000008152600401610fa49061155c565b60405180910390fd5b6000808673ffffffffffffffffffffffffffffffffffffffff168587604051610fd691906113c8565b60006040518083038185875af1925050503d8060008114611013576040519150601f19603f3d011682016040523d82523d6000602084013e611018565b606091505b5091509150611028828286611047565b92505050949350505050565b600080823b905060008111915050919050565b60608315611057578290506110a7565b60008351111561106a5782518084602001fd5b816040517f08c379a000000000000000000000000000000000000000000000000000000000815260040161109e919061145a565b60405180910390fd5b9392505050565b6000813590506110bd81611abb565b92915050565b6000815190506110d281611ad2565b92915050565b6000813590506110e781611ae9565b92915050565b6000815190506110fc81611b00565b92915050565b60006020828403121561111457600080fd5b6000611122848285016110ae565b91505092915050565b60006020828403121561113d57600080fd5b600061114b848285016110c3565b91505092915050565b60006020828403121561116657600080fd5b6000611174848285016110d8565b91505092915050565b6000806040838503121561119057600080fd5b600061119e858286016110d8565b92505060206111af858286016110ae565b9150509250929050565b6000602082840312156111cb57600080fd5b60006111d9848285016110ed565b91505092915050565b6111eb8161171e565b82525050565b60006111fc826115d7565b61120681856115ed565b9350611216818560208601611778565b80840191505092915050565b600061122d826115e2565b61123781856115f8565b9350611247818560208601611778565b61125081611852565b840191505092915050565b60006112686026836115f8565b915061127382611863565b604082019050919050565b600061128b601b836115f8565b9150611296826118b2565b602082019050919050565b60006112ae601b836115f8565b91506112b9826118db565b602082019050919050565b60006112d16026836115f8565b91506112dc82611904565b604082019050919050565b60006112f46021836115f8565b91506112ff82611953565b604082019050919050565b60006113176020836115f8565b9150611322826119a2565b602082019050919050565b600061133a601e836115f8565b9150611345826119cb565b602082019050919050565b600061135d601d836115f8565b9150611368826119f4565b602082019050919050565b60006113806024836115f8565b915061138b82611a1d565b604082019050919050565b60006113a3602a836115f8565b91506113ae82611a6c565b604082019050919050565b6113c28161176e565b82525050565b60006113d482846111f1565b915081905092915050565b60006020820190506113f460008301846111e2565b92915050565b600060408201905061140f60008301856111e2565b61141c60208301846113b9565b9392505050565b600060608201905061143860008301866111e2565b61144560208301856113b9565b61145260408301846111e2565b949350505050565b600060208201905081810360008301526114748184611222565b905092915050565b600060208201905081810360008301526114958161125b565b9050919050565b600060208201905081810360008301526114b58161127e565b9050919050565b600060208201905081810360008301526114d5816112a1565b9050919050565b600060208201905081810360008301526114f5816112c4565b9050919050565b60006020820190508181036000830152611515816112e7565b9050919050565b600060208201905081810360008301526115358161130a565b9050919050565b600060208201905081810360008301526115558161132d565b9050919050565b6000602082019050818103600083015261157581611350565b9050919050565b6000602082019050818103600083015261159581611373565b9050919050565b600060208201905081810360008301526115b581611396565b9050919050565b60006020820190506115d160008301846113b9565b92915050565b600081519050919050565b600081519050919050565b600081905092915050565b600082825260208201905092915050565b60006116148261176e565b915061161f8361176e565b9250827fffffffffffffffffffffffffffffffffffffffffffffffffffffffffffffffff03821115611654576116536117f4565b5b828201905092915050565b600061166a8261176e565b91506116758361176e565b92508261168557611684611823565b5b828204905092915050565b600061169b8261176e565b91506116a68361176e565b9250817fffffffffffffffffffffffffffffffffffffffffffffffffffffffffffffffff04831182151516156116df576116de6117f4565b5b828202905092915050565b60006116f58261176e565b91506117008361176e565b925082821015611713576117126117f4565b5b828203905092915050565b60006117298261174e565b9050919050565b60008115159050919050565b60006117478261171e565b9050919050565b600073ffffffffffffffffffffffffffffffffffffffff82169050919050565b6000819050919050565b60005b8381101561179657808201518184015260208101905061177b565b838111156117a5576000848401525b50505050565b60006117b68261176e565b91507fffffffffffffffffffffffffffffffffffffffffffffffffffffffffffffffff8214156117e9576117e86117f4565b5b600182019050919050565b7f4e487b7100000000000000000000000000000000000000000000000000000000600052601160045260246000fd5b7f4e487b7100000000000000000000000000000000000000000000000000000000600052601260045260246000fd5b6000601f19601f8301169050919050565b7f4f776e61626c653a206e6577206f776e657220697320746865207a65726f206160008201527f6464726573730000000000000000000000000000000000000000000000000000602082015250565b7f536166654d6174683a206164646974696f6e206f766572666c6f770000000000600082015250565b7f57697468647261773a206e6f20746f6b656e7320617265206475650000000000600082015250565b7f416464726573733a20696e73756666696369656e742062616c616e636520666f60008201527f722063616c6c0000000000000000000000000000000000000000000000000000602082015250565b7f536166654d6174683a206d756c7469706c69636174696f6e206f766572666c6f60008201527f7700000000000000000000000000000000000000000000000000000000000000602082015250565b7f4f776e61626c653a2063616c6c6572206973206e6f7420746865206f776e6572600082015250565b7f436c61696d61626c653a20696e76616c6964207061727469636970616e740000600082015250565b7f416464726573733a2063616c6c20746f206e6f6e2d636f6e7472616374000000600082015250565b7f506f6f6c696e673a2073656e646572206973206e6f742061207061727469636960008201527f70616e7400000000000000000000000000000000000000000000000000000000602082015250565b7f5361666545524332303a204552433230206f7065726174696f6e20646964206e60008201527f6f74207375636365656400000000000000000000000000000000000000000000602082015250565b611ac48161171e565b8114611acf57600080fd5b50565b611adb81611730565b8114611ae657600080fd5b50565b611af28161173c565b8114611afd57600080fd5b50565b611b098161176e565b8114611b1457600080fd5b5056fea2646970667358221220db6d7741cbe780e1e9f71580425777f991866e5a35b626dfafb220781a83aa1364736f6c63430008040033",
  "linkReferences": {},
  "deployedLinkReferences": {}
}